{
    "contractName": "Counter",
    "abi": [
        {
            "anonymous": false,
            "inputs": [
                {
                    "indexed": false,
                    "internalType": "uint256",
                    "name": "value",
                    "type": "uint256"
                }
            ],
            "name": "Decrement",
            "type": "event"
        },
        {
            "anonymous": false,
            "inputs": [
                {
                    "indexed": false,
                    "internalType": "uint256",
                    "name": "value",
                    "type": "uint256"
                }
            ],
            "name": "Increment",
            "type": "event"
        },
        {
            "inputs": [],
            "name": "count",
            "outputs": [
                {
                    "internalType": "uint256",
                    "name": "",
                    "type": "uint256"
                }
            ],
            "stateMutability": "view",
            "type": "function"
        },
        {
            "inputs": [],
            "name": "decrement",
            "outputs": [],
            "stateMutability": "nonpayable",
            "type": "function"
        },
        {
            "inputs": [],
            "name": "getCount",
            "outputs": [
                {
                    "internalType": "uint256",
                    "name": "",
                    "type": "uint256"
                }
            ],
            "stateMutability": "view",
            "type": "function"
        },
        {
            "inputs": [],
            "name": "increment",
            "outputs": [],
            "stateMutability": "nonpayable",
            "type": "function"
        }
    ],
    "bytecode": "60806040526000805534801561001457600080fd5b5061019b806100246000396000f3fe608060405234801561001057600080fd5b506004361061004c5760003560e01c806306661abd146100515780632baeceb71461006c578063a87d942c14610076578063d09de08a1461007e575b600080fd5b61005a60005481565b60405190815260200160405180910390f35b610074610086565b005b60005461005a565b6100746100d6565b60016000808282546100989190610138565b90915550506000546040519081527f32814a5bdfd1b8c3d76c49c54e043d6e8aa93d197a09e16599b567135503f748906020015b60405180910390a1565b60016000808282546100e89190610120565b90915550506000546040519081527f51af157c2eee40f68107a47a49c32fbbeb0a3c9e5cd37aa56e88e6be92368a81906020016100cc565b600082198211156101335761013361014f565b500190565b60008282101561014a5761014a61014f565b500390565b634e487b7160e01b600052601160045260246000fdfea264697066735822122018efc89903c8bf3263c60adb072d4485c07c96f235c4c1e2ba192f1ce1b6f2fe64736f6c63430008040033",
    "sourcePath": "/home/ns/Desktop/smartContracts/yenii/Counter.sol",
    "compiler": {
        "name": "solc",
        "version": "0.8.4+commit.c7e474f2"
    },
    "functionHashes": {
        "count()": "06661abd",
        "decrement()": "2baeceb7",
        "getCount()": "a87d942c",
        "increment()": "d09de08a"
    },
    "gasEstimates": {
        "creation": {
            "codeDepositCost": "82200",
            "executionCost": "5135",
            "totalCost": "87335"
        },
        "external": {
            "count()": "961",
            "decrement()": "22897",
            "getCount()": "1002",
            "increment()": "22955"
        }
    }
}